{
  "tables": [
    "address_activity",
    "address_balances",
    "address_summary",
    "address_tx",
    "addresses",
    "api_keys",
    "bi_contract_categories",
    "bi_contract_index",
    "block_hashes",
    "blocks",
    "daily_indexing_stats",
    "daily_summary_reports",
    "devtool_invoices",
    "devtool_wallets",
    "discovered_chains",
    "encrypted_address_balances",
    "encrypted_addresses",
    "encrypted_datasets",
    "encrypted_outputs",
    "encrypted_transactions",
    "inputs",
    "invoices",
    "mc_address_analytics",
    "mc_chain_snapshots",
    "mc_chains",
    "mc_contract_state",
    "mc_decoded_events",
    "mc_defi_interactions",
    "mc_entity_snapshots",
    "mc_event_logs",
    "mc_event_signatures",
    "mc_function_signatures",
    "mc_nft_transfers",
    "mc_registry",
    "mc_rotation_cycles",
    "mc_token_prices",
    "mc_token_transfers",
    "mc_transaction_details",
    "mc_transactions",
    "monitored_contracts",
    "outputs",
    "processed_transactions",
    "projects",
    "scalable_monitored_contracts",
    "scalable_transactions",
    "shielded_invoices",
    "shielded_pool_metrics",
    "shielded_wallets",
    "transactions",
    "ultimate_address_balances",
    "ultimate_contract_events",
    "ultimate_contract_transactions",
    "ultimate_events",
    "ultimate_function_signatures",
    "ultimate_transactions",
    "unified_addresses",
    "unified_invoices",
    "user_payment_preferences",
    "users",
    "wallet_activity_metrics",
    "wallet_adoption_stages",
    "wallet_behavior_flows",
    "wallet_cohort_assignments",
    "wallet_cohorts",
    "wallet_health_dashboard",
    "wallet_privacy_settings",
    "wallet_productivity_scores",
    "wallets",
    "webzjs_invoices",
    "webzjs_wallets",
    "withdrawals"
  ],
  "sample_address_activity": [],
  "sample_address_balances": [],
  "sample_address_summary": [],
  "sample_address_tx": [],
  "sample_addresses": [
    {
      "address": "t1UdgzRqbCmLFQ1jAYBzsejWJZLpC2HL3yb",
      "first_seen": null,
      "last_seen": null
    },
    {
      "address": "t3Vz22vK5z2LcKEdg16Yv4FFneEL1zg9ojd",
      "first_seen": null,
      "last_seen": null
    },
    {
      "address": "t1YNMjmC5my81yXtZWnbnc21XVZs5fn25Ja",
      "first_seen": null,
      "last_seen": null
    }
  ],
  "sample_api_keys": [],
  "sample_bi_contract_categories": [
    {
      "id": 1,
      "category_name": "defi",
      "subcategory": "dex",
      "description": "Decentralized Exchanges",
      "created_at": "2025-12-12T10:26:11.078Z"
    },
    {
      "id": 3,
      "category_name": "nft",
      "subcategory": "marketplace",
      "description": "NFT marketplaces",
      "created_at": "2025-12-12T10:26:11.078Z"
    },
    {
      "id": 4,
      "category_name": "dao",
      "subcategory": "governance",
      "description": "Governance protocols",
      "created_at": "2025-12-12T10:26:11.078Z"
    }
  ],
  "sample_bi_contract_index": [
    {
      "id": "1",
      "contract_address": "0xC02aaA39b223FE8D0A0e5C4F27eAD9083C756Cc2",
      "chain_id": 1,
      "category_id": 1,
      "contract_name": "WETH",
      "protocol_name": "Unknown Protocol",
      "risk_score": 70,
      "is_verified": false,
      "created_at": "2025-12-12T10:26:41.427Z",
      "updated_at": "2025-12-12T10:33:32.928Z"
    },
    {
      "id": "2",
      "contract_address": "0x8f3Cf7ad23Cd3CaDbD9735AFf958023239c6A063",
      "chain_id": 137,
      "category_id": 1,
      "contract_name": "DAI on Polygon",
      "protocol_name": "Unknown Protocol",
      "risk_score": 70,
      "is_verified": false,
      "created_at": "2025-12-12T10:26:42.936Z",
      "updated_at": "2025-12-12T10:33:33.125Z"
    },
    {
      "id": "3",
      "contract_address": "0x55d398326f99059fF775485246999027B3197955",
      "chain_id": 56,
      "category_id": 1,
      "contract_name": "USDT BSC",
      "protocol_name": "Unknown Protocol",
      "risk_score": 30,
      "is_verified": true,
      "created_at": "2025-12-12T10:26:47.428Z",
      "updated_at": "2025-12-12T10:33:33.353Z"
    }
  ],
  "sample_block_hashes": [
    {
      "id": 1,
      "hash": "00000000008a71625f9160acf9d6bc55381cce1f199e85120edc8b8405c6ae91",
      "created_at": "2025-11-23T14:34:09.717Z"
    }
  ],
  "sample_blocks": [
    {
      "height": "1",
      "hash": "0007bc227e1c57a4a70e237cad00e7b7ce565155ab49166bc57397a26d339283",
      "timestamp": "2016-10-28T16:19:56.000Z"
    },
    {
      "height": "2",
      "hash": "0002a26c902619fc964443264feb16f1e3e2d71322fc53dcb81cc5d797e273ed",
      "timestamp": "2016-10-28T16:20:26.000Z"
    },
    {
      "height": "3",
      "hash": "0006f6c4e5bb8e97d65ac9f3fc4bcd8770a6350f9eed0943d84ce9ca65eac67f",
      "timestamp": "2016-10-28T16:20:29.000Z"
    }
  ],
  "sample_daily_indexing_stats": [],
  "sample_daily_summary_reports": [],
  "sample_devtool_invoices": [],
  "sample_devtool_wallets": [],
  "sample_discovered_chains": [
    {
      "id": 2,
      "chain_id": "137",
      "chain_name": "Polygon",
      "chain_type": "evm",
      "rpc_url": "https://polygon-bor-rpc.publicnode.com",
      "network_id": "137",
      "env_key": "POLYGON_RPC_URL",
      "is_validated": true,
      "current_block": "80258161",
      "discovered_at": "2025-12-13T01:52:15.754Z"
    },
    {
      "id": 6,
      "chain_id": "4202",
      "chain_name": "Lisk Sepolia",
      "chain_type": "evm",
      "rpc_url": "https://rpc.sepolia-api.lisk.com",
      "network_id": "4202",
      "env_key": "LISK_SEPOLIA_RPC_URL",
      "is_validated": true,
      "current_block": "30154378",
      "discovered_at": "2025-12-13T01:52:15.776Z"
    },
    {
      "id": 4,
      "chain_id": "1",
      "chain_name": "Ethereum",
      "chain_type": "evm",
      "rpc_url": "https://ethereum-rpc.publicnode.com",
      "network_id": "1",
      "env_key": "ETH_RPC_URL",
      "is_validated": true,
      "current_block": "24003171",
      "discovered_at": "2025-12-13T02:08:56.090Z"
    }
  ],
  "sample_encrypted_address_balances": [],
  "sample_encrypted_addresses": [],
  "sample_encrypted_datasets": [],
  "sample_encrypted_outputs": [],
  "sample_encrypted_transactions": [],
  "sample_inputs": [
    {
      "id": 1,
      "txid": "8974d08d1c5f9c860d8b629d582a56659a4a1dcb2b5f98a25a5afcc2a784b0f4",
      "prev_txid": null,
      "prev_vout": null,
      "scriptsig": null,
      "sequence": null,
      "value": "0",
      "address": null
    },
    {
      "id": 2,
      "txid": "4e3670eae21d0c7225716abacb3a95c203a75d7601594afddb07d175c3babe83",
      "prev_txid": null,
      "prev_vout": null,
      "scriptsig": null,
      "sequence": null,
      "value": "0",
      "address": null
    },
    {
      "id": 3,
      "txid": "781bb9b0168831054c1ed3afd8bf153f3fc848e102cea86977545c86f6e2446e",
      "prev_txid": null,
      "prev_vout": null,
      "scriptsig": null,
      "sequence": null,
      "value": "0",
      "address": null
    }
  ],
  "sample_invoices": [],
  "sample_mc_address_analytics": [],
  "sample_mc_chain_snapshots": [
    {
      "id": "1",
      "cycle_id": 21,
      "chain_id": 5,
      "block_number": "4222833",
      "block_timestamp": "2025-12-12T16:50:09.000Z",
      "gas_price": "0",
      "base_fee": null,
      "blob_base_fee": null,
      "captured_at": "2025-12-12T08:13:22.432Z",
      "fee_history_json": {}
    },
    {
      "id": "3",
      "cycle_id": 20,
      "chain_id": 8453,
      "block_number": "39384433",
      "block_timestamp": "2025-12-12T16:50:13.000Z",
      "gas_price": "3277097",
      "base_fee": null,
      "blob_base_fee": null,
      "captured_at": "2025-12-12T08:13:22.892Z",
      "fee_history_json": {
        "reward": [
          [
            "0x60ed",
            "0xf4240",
            "0x2e6f42"
          ],
          [
            "0x52682",
            "0xf4240",
            "0x1feef6"
          ],
          [
            "0xa",
            "0xf4240",
            "0x1e8480"
          ],
          [
            "0x52699",
            "0xf4240",
            "0x26b67b"
          ],
          [
            "0xe2e1",
            "0xf4240",
            "0x17e5a2"
          ]
        ],
        "oldestBlock": "0x258f56d",
        "gasUsedRatio": [
          0.17121537333333334,
          0.17867801666666666,
          0.18036949666666666,
          0.18219789333333333,
          0.15862779333333332
        ],
        "baseFeePerGas": [
          "0x3271d6",
          "0x324caa",
          "0x323136",
          "0x3217fd",
          "0x320129",
          "0x31cc33"
        ],
        "blobGasUsedRatio": [
          0,
          0,
          0,
          0,
          0
        ],
        "baseFeePerBlobGas": [
          "0x1",
          "0x1",
          "0x1",
          "0x1",
          "0x1",
          "0x1"
        ]
      }
    },
    {
      "id": "2",
      "cycle_id": 21,
      "chain_id": 8453,
      "block_number": "39384432",
      "block_timestamp": "2025-12-12T16:50:11.000Z",
      "gas_price": "3282941",
      "base_fee": null,
      "blob_base_fee": null,
      "captured_at": "2025-12-12T08:13:21.490Z",
      "fee_history_json": {
        "reward": [
          [
            "0x60ed",
            "0xf4240",
            "0x2e6f42"
          ],
          [
            "0x52682",
            "0xf4240",
            "0x1feef6"
          ],
          [
            "0xa",
            "0xf4240",
            "0x1e8480"
          ],
          [
            "0x52699",
            "0xf4240",
            "0x26b67b"
          ],
          [
            "0xe2e1",
            "0xf4240",
            "0x17e5a2"
          ]
        ],
        "oldestBlock": "0x258f56d",
        "gasUsedRatio": [
          0.17121537333333334,
          0.17867801666666666,
          0.18036949666666666,
          0.18219789333333333,
          0.15862779333333332
        ],
        "baseFeePerGas": [
          "0x3271d6",
          "0x324caa",
          "0x323136",
          "0x3217fd",
          "0x320129",
          "0x31cc33"
        ],
        "blobGasUsedRatio": [
          0,
          0,
          0,
          0,
          0
        ],
        "baseFeePerBlobGas": [
          "0x1",
          "0x1",
          "0x1",
          "0x1",
          "0x1",
          "0x1"
        ]
      }
    }
  ],
  "sample_mc_chains": [
    {
      "id": 5,
      "name": "starknet",
      "rpc_urls": [
        "https://rpc.starknet.lava.build"
      ],
      "block_time_sec": 12,
      "is_active": true,
      "rpc_url": null,
      "chain_id": null
    },
    {
      "id": 1,
      "name": "ethereum",
      "rpc_urls": [
        "https://ethereum-rpc.publicnode.com"
      ],
      "block_time_sec": 12,
      "is_active": true,
      "rpc_url": "https://ethereum-rpc.publicnode.com",
      "chain_id": "1"
    },
    {
      "id": 137,
      "name": "polygon",
      "rpc_urls": [
        "https://polygon-bor-rpc.publicnode.com"
      ],
      "block_time_sec": 12,
      "is_active": true,
      "rpc_url": "https://polygon-bor-rpc.publicnode.com",
      "chain_id": "137"
    }
  ],
  "sample_mc_contract_state": [],
  "sample_mc_decoded_events": [
    {
      "id": "1",
      "cycle_id": 13,
      "registry_id": 6,
      "tx_hash": "0xbefae4ffea03f22389b5b803f1c82c28b08463fc312ddf1db50490c07c8419f9",
      "block_number": "23997477",
      "log_index": 60,
      "event_name": "Transfer",
      "event_signature": "0xddf252ad1be2c89b69c2b068fc378daa952ba7f163c4a11628f55a4df523b3ef",
      "decoded_data": null,
      "raw_topics": [
        "0xddf252ad1be2c89b69c2b068fc378daa952ba7f163c4a11628f55a4df523b3ef",
        "0x000000000000000000000000a03400e098f4421b34a3a44a1b4e571419517687",
        "0x00000000000000000000000042d779fe2cce22c9c4d23caae11022472b805dd5"
      ],
      "raw_data": "0x00000000000000000000000000000000000000000000099a40696b2aa7545800",
      "captured_at": "2025-12-12T07:03:00.549Z"
    },
    {
      "id": "2",
      "cycle_id": 14,
      "registry_id": 11,
      "tx_hash": "0x3546f5fd4e48075b9fb425900c3ff382398a0352229cba0cf239dd99890b0d44",
      "block_number": "71402913",
      "log_index": 9,
      "event_name": "Transfer",
      "event_signature": "0xddf252ad1be2c89b69c2b068fc378daa952ba7f163c4a11628f55a4df523b3ef",
      "decoded_data": null,
      "raw_topics": [
        "0xddf252ad1be2c89b69c2b068fc378daa952ba7f163c4a11628f55a4df523b3ef",
        "0x00000000000000000000000028e2ea090877bf75740558f6bfb36a5ffee9e9df",
        "0x000000000000000000000000d547eafde2410e63300fc5308ccea0b356e7b5d8"
      ],
      "raw_data": "0x0000000000000000000000000000000000000000000000024dbe2fa171f50ba8",
      "captured_at": "2025-12-12T07:03:02.453Z"
    },
    {
      "id": "3",
      "cycle_id": 14,
      "registry_id": 3,
      "tx_hash": "0x2c5f025381eaa8dce152bc41f2c31e94f43ee588316c0b943c016a1da4590fc7",
      "block_number": "80224298",
      "log_index": 45,
      "event_name": "Approval",
      "event_signature": "0x8c5be1e5ebec7d5bd14f71427d1e84f3dd0314c0f7b2291e5b200ac8c7c3b925",
      "decoded_data": null,
      "raw_topics": [
        "0x8c5be1e5ebec7d5bd14f71427d1e84f3dd0314c0f7b2291e5b200ac8c7c3b925",
        "0x0000000000000000000000009ca0603c440b3e29a9090cfed0154c43070d2c3b",
        "0x0000000000000000000000004d97dcd97ec945f40cf65f87097ace5ea0476045"
      ],
      "raw_data": "0xffffffffffffffffffffffffffffffffffffffffffffffffffffffffffffffff",
      "captured_at": "2025-12-12T07:03:02.593Z"
    }
  ],
  "sample_mc_defi_interactions": [
    {
      "id": "2",
      "cycle_id": 22,
      "chain_id": 1,
      "tx_hash": "0x571c40e8556d67d685723133f8921f824b39b8d768b03b171bc7a6a562411678",
      "block_number": "23997797",
      "protocol_name": "uniswap",
      "interaction_type": "swap",
      "user_address": "0x4768A347622B94AD651Aea437E40326a3ABEc9b2",
      "contract_address": "0xCf5540fFFCdC3d510B18bFcA6d2b9987b0772559",
      "token_in_address": null,
      "token_in_amount": null,
      "token_out_address": null,
      "token_out_amount": null,
      "price_impact": null,
      "fee_amount": null,
      "metadata": {
        "user": "0x4768A347622B94AD651Aea437E40326a3ABEc9b2",
        "params": [],
        "contract": "0xCf5540fFFCdC3d510B18bFcA6d2b9987b0772559",
        "function": "swapCompact"
      },
      "captured_at": "2025-12-12T08:06:59.092Z"
    },
    {
      "id": "6",
      "cycle_id": 22,
      "chain_id": 1,
      "tx_hash": "0x27e882047ffc0dfdc434d25792e27621ae4f966ce9c330fe3ed1eb29f073cb1f",
      "block_number": "23997797",
      "protocol_name": "uniswap",
      "interaction_type": "swap",
      "user_address": "0x2a92f55695fab615E484d1e33feD403D1E680b37",
      "contract_address": "0x881D40237659C251811CEC9c364ef91dC08D300C",
      "token_in_address": null,
      "token_in_amount": null,
      "token_out_address": null,
      "token_out_amount": null,
      "price_impact": null,
      "fee_amount": null,
      "metadata": {
        "user": "0x2a92f55695fab615E484d1e33feD403D1E680b37",
        "params": [
          "0x30785632"
        ],
        "contract": "0x881D40237659C251811CEC9c364ef91dC08D300C",
        "function": "ripoffSwap_SfGuec"
      },
      "captured_at": "2025-12-12T08:07:06.975Z"
    },
    {
      "id": "8",
      "cycle_id": 22,
      "chain_id": 1,
      "tx_hash": "0x71c12188580a73e1efef4ffbf17814e4a27534456b8d60699f4a941106a7708e",
      "block_number": "23997797",
      "protocol_name": "uniswap",
      "interaction_type": "swap",
      "user_address": "0x4Fa1feF43A89Cdb9D3c56A2B534bacF0C7D07a83",
      "contract_address": "0x6131B5fae19EA4f9D964eAc0408E4408b66337b5",
      "token_in_address": null,
      "token_in_amount": null,
      "token_out_address": null,
      "token_out_amount": null,
      "price_impact": null,
      "fee_amount": null,
      "metadata": {
        "user": "0x4Fa1feF43A89Cdb9D3c56A2B534bacF0C7D07a83",
        "params": [
          [
            "0x63242A4Ea82847b20E506b63B0e2e2eFF0CC6cB0",
            "0x0000000000000000000000000000000000000000",
            "0x0000000000000000000000003b8b87c00000000000000000000000003b8b87c0000000000000000000000000000000000000000000000000000000000000006000000000000000000000000000000000000000000000000000000000000000e00000000000000000000000000000000000000000000000000000000000000041bd29082325ad8138cd09f62903c49c789215eea0e939b774fde2cde0d214a5215b4339fdc5e63effbf737dc6d178a94354375db7b3596d9292a99be9afbf17a81c0000000000000000000000000000000000000000000000000000000000000000000000000000000000000000000000000000000000000000000000000008600000000000000000000000004fa1fef43a89cdb9d3c56a2b534bacf0c7d07a83000000000000000000000000000000000000000000000000000000000000014000000000000000000000000000000000000000000000000000000000000001a000000000000000000000000038915a900000000000000000000000003e85b4f00000000000000000000000003b8b87c0000000000000014833a81074f1234ae30000000000000000000000000000000015824fece4b7820000000f42400000000000000000000000000000004f82e73edb06d29ff62c91ec8f5ff06571bdeb29000000000000000000000000000000000000000000000000000000000000000000000000000000000000000000000000000000000000000000000029e8d608000000000000000000000000000000000000000000000000000000000000000840000000000000000000000000000000000000000000000000000000000000000261f598cd000000000000000020f91ab108962d7e3c7dbf97b9179592855ab3d7b6a54548000000000000000020f91ab108962d7e3c7dbf97b9179592855ab3d700000000000000000000000000000000000000000000000000000000000000040000000000000000000000000000000000000000000000000000000000000080000000000000000000000000000000000000000000000000000000000000030000000000000000000000000000000000000000000000000000000000000004800000000000000000000000000000000000000000000000000000000000000600000000000000000000000000dac17f958d2ee523a2206206994597c13d831ec7800000000000000000000000000003e70000000000000000000000003b8b87c0000000000000000000000000000000000000000000000000000000000000006000000000000000000000000000000000000000000000000000000000000000010000000000000000000000000000000000000000000000000000000000000020000000000000000000000000000000000000000000000000000000003b8b87c0caafa6ec0000000000000001121b20a953a964a774d7fcf046643ceb87d53cc7000000000000000000000000000000000000000000000000000000000000008000000000000000000000000063242a4ea82847b20e506b63b0e2e2eff0cc6cb00000000000000000000000000000000000000000000000000000000000000140000000000000000000000000bbcb91440523216e2b87052a99f69c604a7b6e00000000000000000000000000000000000000000000000000000000000000006000000000000000000000000000000000000000000000000000000000000000c00000000000000000000000000000000000000000000000000000000000000002000000000000000000000000dac17f958d2ee523a2206206994597c13d831ec7000000000000000000000000a0b86991c6218b36c1d19d4a2e9eb0ce3606eb480000000000000000000000000000000000000000000000000000000000000001000000000000000000000000a0b86991c6218b36c1d19d4a2e9eb0ce3606eb48000000000000000000000000dac17f958d2ee523a2206206994597c13d831ec70000000000000000000000000000000000000000000000000000000000000000000000000000000000000000a0b86991c6218b36c1d19d4a2e9eb0ce3606eb48800000000000000000000000000003e70000000000000000000000003b90544e000000000000000000000000000000000000000000000000000000000000006000000000000000000000000000000000000000000000000000000000000000010000000000000000000000000000000000000000000000000000000000000020000000000000000000000000000000000000000000000000000000003b90544e3b9d6e0900000000000000025455c918e405a2831fbff8595c0aae35ee3db9d1000000000000000000000000000000000000000000000000000000000000008000000000000000000000000063242a4ea82847b20e506b63b0e2e2eff0cc6cb00000000000000000000000000000000000000000000000000000000000000040000000000000000000000000e0554a476a092703abdb3ef35c80e0d76d32939f00000000000000000000000000000000000000000000000000000001000276a4000000000000000000000000c02aaa39b223fe8d0a0e5c4f27ead9083c756cc280000000000000000000004c32fb64770000000000000000048ab4ec71bef01b000000000000000000000000000000000000000000000000000000000000006000000000000000000000000000000000000000000000000000000000000000010000000000000000000000000000000000000000000000000000000000000020000000000000000000000000000000000000000000000000048ab4ec71bef01b3b9d6e0900000000000000035455c918e405a2831fbff8595c0aae35ee3db9d1000000000000000000000000000000000000000000000000000000000000008000000000000000000000000063242a4ea82847b20e506b63b0e2e2eff0cc6cb00000000000000000000000000000000000000000000000000000000000000040000000000000000000000000ba2a013b29631d3277bbbce80c970d06c1bda0c3000000000000000000000000ff120d460d67f1db5b71087bd404babb342b598600000000000000000000000094a8b4ee5cd64c79d0ee816f467ea73009f51aa08000000000000000000000000000000100000000000000000000000000000000000000000000000000000000000000000000000000000000000000000000006000000000000000000000000000000000000000000000000000000000000000000000000000000000000000000000000000000000000000000000000000000000",
            [
              "0xdAC17F958D2ee523a2206206994597C13D831ec7",
              "0x94a8b4EE5CD64C79D0Ee816f467EA73009f51aA0",
              [
                "0x63242A4Ea82847b20E506b63B0e2e2eFF0CC6cB0"
              ],
              [
                "999000000"
              ],
              [],
              [],
              "0x4Fa1feF43A89Cdb9D3c56A2B534bacF0C7D07a83",
              "999000000",
              "6023983027866386505142",
              "512",
              "0x"
            ],
            "0x7b22536f75726365223a226b7962657273776170222c22416d6f756e74496e555344223a22313030322e39373237343439353335373837222c22416d6f756e744f7574555344223a22313030302e30323138303635303834343835222c22526566657272616c223a22222c22466c616773223a302c22416d6f756e744f7574223a2236303534323534323939333633323032353137373331222c2254696d657374616d70223a313736353535373633362c22526f7574654944223a2237636337646633382d353833392d343933382d623861622d6639383531316366663065633a33396466393235312d643064332d346133392d396336332d313034396434363235636531222c22496e74656772697479496e666f223a7b224b65794944223a2231222c225369676e6174757265223a22584e415a626550714d58472f6a3830792f754f7878566a44644e39545a59347a3753692b466f783873687045523251335861664e456e4565644866743979773345356968483959722f676b37493568634842614d646e647855755530527a4136672b754b784d744a6b6c3755584c5a744f6d63315076394a6f484a364c664952376d6c6773475146564c74584f53696e6956445333544e615776745537373857413439472f48672f472b475a62467236625548616150457755705a3958713138594d6d5a635a3950376a586f6d41385536484356704e5656314e486c67794254637669456a38504a5a7254766464527746384c5431302b6c4b51477a48564c6672383442486d68794a534b6c537659755079474e664930555739716e616a37374a466643576b596846454277354455616d526175625445707241585150744a534d396d504f354c453137334e584b6e6a6963573970773d3d227d7d"
          ]
        ],
        "contract": "0x6131B5fae19EA4f9D964eAc0408E4408b66337b5",
        "function": "swap"
      },
      "captured_at": "2025-12-12T08:07:15.001Z"
    }
  ],
  "sample_mc_entity_snapshots": [
    {
      "id": "1",
      "cycle_id": 23,
      "registry_id": 4,
      "balance": "0",
      "nonce": "0",
      "is_contract": true,
      "code_hash": "0x7f3777c99f3700505ea966676aac4a0d692c2a9f5e667f4c606b51ca1dd3420",
      "captured_at": "2025-12-12T08:13:18.647Z"
    },
    {
      "id": "2",
      "cycle_id": 20,
      "registry_id": 4,
      "balance": "0",
      "nonce": "0",
      "is_contract": true,
      "code_hash": "0x7f3777c99f3700505ea966676aac4a0d692c2a9f5e667f4c606b51ca1dd3420",
      "captured_at": "2025-12-12T08:13:17.996Z"
    },
    {
      "id": "3",
      "cycle_id": 21,
      "registry_id": 4,
      "balance": "0",
      "nonce": "0",
      "is_contract": true,
      "code_hash": "0x7f3777c99f3700505ea966676aac4a0d692c2a9f5e667f4c606b51ca1dd3420",
      "captured_at": "2025-12-12T08:13:25.041Z"
    }
  ],
  "sample_mc_event_logs": [
    {
      "id": "1",
      "cycle_id": 19,
      "registry_id": 11,
      "block_number": "71405888",
      "tx_hash": "0xcfa8f1779236000a0df2ad83ebdffa9b44ca57c5d213269dc95456abe76f5300",
      "log_index": null,
      "topic0": "0xddf252ad1be2c89b69c2b068fc378daa952ba7f163c4a11628f55a4df523b3ef",
      "topics": null,
      "data": "0x00000000000000000000000000000000000000000000000d018b36d61813942f",
      "captured_at": "2025-12-12T08:13:20.652Z"
    },
    {
      "id": "2",
      "cycle_id": 23,
      "registry_id": 1,
      "block_number": "23997797",
      "tx_hash": "0x2a80310e259376b854d88bc09f3a90da096c67253ec74d3034a137708ef7cd67",
      "log_index": null,
      "topic0": "0xddf252ad1be2c89b69c2b068fc378daa952ba7f163c4a11628f55a4df523b3ef",
      "topics": null,
      "data": "0x00000000000000000000000000000000000000000000000000000000003a1704",
      "captured_at": "2025-12-12T08:13:17.841Z"
    },
    {
      "id": "3",
      "cycle_id": 23,
      "registry_id": 2,
      "block_number": "23997797",
      "tx_hash": "0xd762ccf98bff7bc87a79eb7b35cefd37fcf8a5020f6531df9e6027193bd539c1",
      "log_index": null,
      "topic0": "0xddf252ad1be2c89b69c2b068fc378daa952ba7f163c4a11628f55a4df523b3ef",
      "topics": null,
      "data": "0x000000000000000000000000000000000000000000000000002df4eb450aabe7",
      "captured_at": "2025-12-12T08:13:17.826Z"
    }
  ],
  "sample_mc_event_signatures": [
    {
      "id": 1,
      "topic0": "0xddf252ad1be2c89b69c2b068fc378daa952ba7f163c4a11628f55a4df523b3ef",
      "signature": "Transfer(address,address,uint256)",
      "event_name": "Transfer",
      "inputs": [],
      "source": "manual",
      "created_at": "2025-12-12T06:56:54.330Z"
    },
    {
      "id": 2,
      "topic0": "0x8c5be1e5ebec7d5bd14f71427d1e84f3dd0314c0f7b2291e5b200ac8c7c3b925",
      "signature": "Approval(address,address,uint256)",
      "event_name": "Approval",
      "inputs": [],
      "source": "manual",
      "created_at": "2025-12-12T06:56:54.509Z"
    }
  ],
  "sample_mc_function_signatures": [
    {
      "id": 1,
      "selector": "0xa9059cbb",
      "signature": "transfer(address,uint256)",
      "function_name": "transfer",
      "inputs": [],
      "source": "manual",
      "created_at": "2025-12-12T06:56:53.212Z"
    },
    {
      "id": 2,
      "selector": "0x23b872dd",
      "signature": "transferFrom(address,address,uint256)",
      "function_name": "transferFrom",
      "inputs": [],
      "source": "manual",
      "created_at": "2025-12-12T06:56:54.281Z"
    },
    {
      "id": 3,
      "selector": "0x095ea7b3",
      "signature": "approve(address,uint256)",
      "function_name": "approve",
      "inputs": [],
      "source": "manual",
      "created_at": "2025-12-12T06:56:54.283Z"
    }
  ],
  "sample_mc_nft_transfers": [],
  "sample_mc_registry": [
    {
      "id": 1,
      "chain_id": 1,
      "address": "0xdAC17F958D2ee523a2206206994597C13D831ec7",
      "category": "sTABLECOIN",
      "name": "USDT",
      "target_functions": [
        "totalSupply()"
      ],
      "abi_definitions": null,
      "monitor_events": true,
      "priority": 1
    },
    {
      "id": 2,
      "chain_id": 1,
      "address": "0xC02aaA39b223FE8D0A0e5C4F27eAD9083C756Cc2",
      "category": "WRAPPED",
      "name": "WETH",
      "target_functions": [
        "totalSupply()"
      ],
      "abi_definitions": null,
      "monitor_events": true,
      "priority": 1
    },
    {
      "id": 3,
      "chain_id": 137,
      "address": "0x2791Bca1f2de4661ED88A30C99A7a9449Aa84174",
      "category": "STABLECOIN",
      "name": "USDC.e",
      "target_functions": [
        "totalSupply()"
      ],
      "abi_definitions": null,
      "monitor_events": true,
      "priority": 1
    }
  ],
  "sample_mc_rotation_cycles": [
    {
      "id": 1,
      "start_time": "2025-12-12T04:37:36.590Z",
      "end_time": "2025-12-12T05:07:37.251Z",
      "status": "COMPLETED"
    },
    {
      "id": 4,
      "start_time": "2025-12-12T05:07:57.624Z",
      "end_time": null,
      "status": "ACTIVE"
    },
    {
      "id": 2,
      "start_time": "2025-12-12T04:39:16.605Z",
      "end_time": "2025-12-12T05:09:17.051Z",
      "status": "COMPLETED"
    }
  ],
  "sample_mc_token_prices": [],
  "sample_mc_token_transfers": [],
  "sample_mc_transaction_details": [
    {
      "id": "2",
      "cycle_id": 18,
      "chain_id": 56,
      "tx_hash": "0xc27b79731479401ba00c0c4629ee53f389017d6c87bc2f078fd797daacc5b58d",
      "block_number": "71404779",
      "tx_index": 92,
      "from_address": "0xbf13EeC447C782a695e910d07C3DE148B3ad04BB",
      "to_address": "0xb300000b72DEAEb607a12d5f54773D1C19c7028d",
      "value": "0",
      "gas_price": "55324991",
      "gas_limit": "541585",
      "gas_used": "372439",
      "status": 1,
      "nonce": "6744",
      "input_data": "0x810c705b00000000000000000000000094a11745a8d33388ee635b55f43944f1202c13d40000000000000000000000003d90f66b534dd8482b181e24655a9e8265316be9b000000000000000000000004fa7c69a7b69f8bc48233024d546bc299d6b03bf0000000000000000000000000000000000000000000063bde8bdd447467f8d5800000000000000000000000055d398326f99059ff775485246999027b319795500000000000000000000000000000000000000000000004cd64f94d37c30027700000000000000000000000000000000000000000000000000000000000000e000000000000000000000000000000000000000000000000000000000000006c447ee97ff0000000000000000000000000000000000000000000000008b436a72b1a3bff300000000000000000000000000000000000000000000000000000000000000000000000000000000000000000000000000000000000000000000000000000000000000000000000000000000000000000000000000000000000000000000000000000000000000000000000000000000000000000000004cd84731115caee69600000000000000000000000000000000000000000000000000000000000000000000000000000000000000004fa7c69a7b69f8bc48233024d546bc299d6b03bf00000000000000000000000055d398326f99059ff775485246999027b31979550000000000000000000000000000000000000000000063bde8bdd447467f8d5800000000000000000000000000000000000000000000004cd64f94d37c30027800000000000000000000000000000000000000000000000000000000693c3e9f00000000000000000000000000000000000000000000000000000000000001c00000000000000000000000000000000000000000000000000000000000000200000000000000000000000000000000000000000000000000000000000000066000000000000000000000000000000000000000000000000000000000000000010000000000000000000000000000000000000000000063bde8bdd447467f8d58000000000000000000000000000000000000000000000000000000000000000100000000000000000000000000000000000000000000000000000000000000200000000000000000000000000000000000000000000000000000000000000001000000000000000000000000000000000000000000000000000000000000002000000000000000000000000000000000000000000000000000000000000000a00000000000000000000000000000000000000000000000000000000000000100000000000000000000000000000000000000000000000000000000000000016000000000000000000000000000000000000000000000000000000000000001c00000000000000000000000004fa7c69a7b69f8bc48233024d546bc299d6b03bf0000000000000000000000000000000000000000000000000000000000000002000000000000000000000000ca852767b43a395ac1dd54737193eba5e20c78bd0000000000000000000000005b620eabc2aba77d2bc4092f6d1fad6515872c340000000000000000000000000000000000000000000000000000000000000002000000000000000000000000ca852767b43a395ac1dd54737193eba5e20c78bd0000000000000000000000005b620eabc2aba77d2bc4092f6d1fad6515872c3400000000000000000000000000000000000000000000000000000000000000020000000000000000000023289485ff32b6b4444c21d5abe4d9a2283d127075a20000000000000000000003e8e1acb466421ed24dd8bd381d1205bad0ad43ca9c00000000000000000000000000000000000000000000000000000000000000020000000000000000000000000000000000000000000000000000000000000040000000000000000000000000000000000000000000000000000000000000012000000000000000000000000000000000000000000000000000000000000000c00000000000000000000000000000000000000000000000000000000000000000000000000000000000000000000000000000000000000000000000000000004000000000000000000000000000000000000000000000000000000000000000600000000000000000000000004fa7c69a7b69f8bc48233024d546bc299d6b03bf00000000000000000000000055d398326f99059ff775485246999027b3197955000000000000000000000000000000000000000000000000000000000000006400000000000000000000000000000000000000000000000000000000000000c00000000000000000000000000000000000000000000000000000000000000000000000000000000000000000000000000000000000000000000000000000004000000000000000000000000000000000000000000000000000000000000000600000000000000000000000004fa7c69a7b69f8bc48233024d546bc299d6b03bf00000000000000000000000055d398326f99059ff775485246999027b3197955000000000000000000000000000000000000000000000000000000000000006400000000000000000000000000000000000000000000000000000000000000000000000000000000000000000000000000000000000000000000000000000000000000000000000000000000000000000000000000000000000000000000000000000000000000000000000000000000000000000000000000000000",
      "function_selector": "0x810c705b",
      "function_name": "unknown",
      "decoded_input": null,
      "error_reason": null,
      "internal_calls": null,
      "captured_at": "2025-12-12T08:06:52.307Z"
    },
    {
      "id": "8",
      "cycle_id": 22,
      "chain_id": 1,
      "tx_hash": "0xcf1a017bea4ef6498cca429a57760854ce7c1b7690bc6ef1b9f27e8b8d33376a",
      "block_number": "23997797",
      "tx_index": 0,
      "from_address": "0xB0E4251469Fb865F69065865eeCb2A5fCeC7Ab69",
      "to_address": "0x80a64c6D7f12C47B7c66c5B4E20E72bc1FCd5d9e",
      "value": "50000000000000000",
      "gas_price": "12175106515",
      "gas_limit": "264258",
      "gas_used": "150130",
      "status": 1,
      "nonce": "174",
      "input_data": "0x088890dc00000000000000000000000000000000000000000000000000000a1f157ac45600000000000000000000000000000000000000000000000000000000000000a0000000000000000000000000b0e4251469fb865f69065865eecb2a5fcec7ab6900000000000000000000000000000000000000000000000000000000693c45c00000000000000000000000005c69bee701ef814a2b6a3edd4b1652cb9cc5aa6f0000000000000000000000000000000000000000000000000000000000000002000000000000000000000000c02aaa39b223fe8d0a0e5c4f27ead9083c756cc200000000000000000000000080bb88bba209ba3b50959064c8fac5df85250dbc",
      "function_selector": "0x088890dc",
      "function_name": "swapExactETHForTokensSupportingFeeOnTransferTokens",
      "decoded_input": [
        "11128620631126",
        [
          "0xC02aaA39b223FE8D0A0e5C4F27eAD9083C756Cc2",
          "0x80bb88bBa209bA3B50959064C8fAc5Df85250dBC"
        ],
        "0xB0E4251469Fb865F69065865eeCb2A5fCeC7Ab69",
        "1765557696",
        "0x5C69bEe701ef814a2B6a3EDD4B1652CB9cc5aA6f"
      ],
      "error_reason": null,
      "internal_calls": null,
      "captured_at": "2025-12-12T08:06:53.419Z"
    },
    {
      "id": "4",
      "cycle_id": 22,
      "chain_id": 137,
      "tx_hash": "0xae2949600e7762d7db1a56f8e4f836e7a2313927d9e93b753b4a4ca74327cd9a",
      "block_number": "80226149",
      "tx_index": 116,
      "from_address": "0x09395c7f9a00e92bD270298e8810Ceb862cE7b95",
      "to_address": "0xa5E0829CaCEd8fFDD4De3c43696c57F7D7A678ff",
      "value": "0",
      "gas_price": "227901135337",
      "gas_limit": "3000000",
      "gas_used": "349744",
      "status": 1,
      "nonce": "4301",
      "input_data": "0x5c11d7950000000000000000000000000000000000000000000000000000000442c3d700000000000000000000000000000000000000000000000005e79fe08af369a00000000000000000000000000000000000000000000000000000000000000000a000000000000000000000000009395c7f9a00e92bd270298e8810ceb862ce7b950000000000000000000000000000000000000000000000000000019b137460080000000000000000000000000000000000000000000000000000000000000002000000000000000000000000eb51d9a39ad5eef215dc0bf39a8821ff804a0f010000000000000000000000008f3cf7ad23cd3cadbd9735aff958023239c6a063",
      "function_selector": "0x5c11d795",
      "function_name": "watch_tg_invmru_77e6c68",
      "decoded_input": [
        "18300000000",
        true,
        "0x00000000000000000000000000000000000000a0"
      ],
      "error_reason": null,
      "internal_calls": null,
      "captured_at": "2025-12-12T08:06:52.807Z"
    }
  ],
  "sample_mc_transactions": [],
  "sample_monitored_contracts": [
    {
      "id": 1,
      "contract_address": "0x04bb1a742ac72a9a72beebe1f608c508fce6dfa9250b869018b6e157dccb46e8",
      "chain_type": "auto",
      "added_at": "2025-12-13T01:37:09.430Z",
      "last_indexed_block": "0",
      "is_active": true
    }
  ],
  "sample_outputs": [
    {
      "id": 162,
      "txid": "38e6ecc2d9e5674f3a934fab32d6821b8d3c0ddfad08153bd7eb2a82b77b146a",
      "vout_index": 1,
      "value": "0.01025",
      "scriptpubkey": "{\"asm\":\"OP_HASH160 7d46a730d31f97b1930d3368a967c309bd4d136a OP_EQUAL\",\"hex\":\"a9147d46a730d31f97b1930d3368a967c309bd4d136a87\",\"reqSigs\":1,\"type\":\"scripthash\",\"addresses\":[\"t3Vz22vK5z2LcKEdg16Yv4FFneEL1zg9ojd\"]}",
      "address": "t3Vz22vK5z2LcKEdg16Yv4FFneEL1zg9ojd",
      "script_pub_key": null,
      "vout": null
    },
    {
      "id": 163,
      "txid": "5c9d1410d60260f99140cdfb96a73dee56fde557ede1dcf25338e8fe39767f7c",
      "vout_index": 0,
      "value": "0.0415",
      "scriptpubkey": "{\"asm\":\"0350ca719cd6a3a93fe23c905fb2af8d37dec5c587a5d57594118c86a572071bda OP_CHECKSIG\",\"hex\":\"210350ca719cd6a3a93fe23c905fb2af8d37dec5c587a5d57594118c86a572071bdaac\",\"reqSigs\":1,\"type\":\"pubkey\",\"addresses\":[\"t1K3HfLpbqzoWx1sv7wHAHjjyrPYyzacZUq\"]}",
      "address": "t1K3HfLpbqzoWx1sv7wHAHjjyrPYyzacZUq",
      "script_pub_key": null,
      "vout": null
    },
    {
      "id": 164,
      "txid": "5c9d1410d60260f99140cdfb96a73dee56fde557ede1dcf25338e8fe39767f7c",
      "vout_index": 1,
      "value": "0.010375",
      "scriptpubkey": "{\"asm\":\"OP_HASH160 7d46a730d31f97b1930d3368a967c309bd4d136a OP_EQUAL\",\"hex\":\"a9147d46a730d31f97b1930d3368a967c309bd4d136a87\",\"reqSigs\":1,\"type\":\"scripthash\",\"addresses\":[\"t3Vz22vK5z2LcKEdg16Yv4FFneEL1zg9ojd\"]}",
      "address": "t3Vz22vK5z2LcKEdg16Yv4FFneEL1zg9ojd",
      "script_pub_key": null,
      "vout": null
    }
  ],
  "sample_processed_transactions": [
    {
      "id": "30fd733b-c5a8-4689-b84a-ca3dfb7b0375",
      "wallet_id": "d158c8cb-be4f-42dc-b5d3-ee87e505ff67",
      "txid": "test_tx_003",
      "block_height": 12347,
      "block_timestamp": "2025-11-25T16:28:07.666Z",
      "tx_type": "shielded",
      "tx_subtype": "outgoing",
      "value_zatoshi": "-10000000",
      "fee_zatoshi": "5000",
      "usd_value_at_time": null,
      "counterparty_address": "zs1ShieldedAddress001",
      "counterparty_type": "wallet",
      "feature_used": null,
      "sequence_position": null,
      "session_id": null,
      "time_since_previous_tx_minutes": null,
      "is_shielded": true,
      "shielded_pool_entry": false,
      "shielded_pool_exit": false,
      "processed_at": "2025-11-25T15:58:07.888Z"
    },
    {
      "id": "59a72fb2-0e13-4045-886d-762a2ffd7bdc",
      "wallet_id": "d158c8cb-be4f-42dc-b5d3-ee87e505ff67",
      "txid": "test_tx_001",
      "block_height": 12345,
      "block_timestamp": "2025-11-25T15:58:07.666Z",
      "tx_type": "transfer",
      "tx_subtype": "outgoing",
      "value_zatoshi": "-50000000",
      "fee_zatoshi": "1000",
      "usd_value_at_time": null,
      "counterparty_address": "t1RecipientAddress001",
      "counterparty_type": "wallet",
      "feature_used": "basic_transfer",
      "sequence_position": null,
      "session_id": null,
      "time_since_previous_tx_minutes": null,
      "is_shielded": false,
      "shielded_pool_entry": false,
      "shielded_pool_exit": false,
      "processed_at": "2025-11-25T16:24:44.108Z"
    },
    {
      "id": "c1620b77-fcf5-4940-bc24-4307c8fb2f14",
      "wallet_id": "d158c8cb-be4f-42dc-b5d3-ee87e505ff67",
      "txid": "test_tx_002",
      "block_height": 12346,
      "block_timestamp": "2025-11-25T16:08:07.666Z",
      "tx_type": "swap",
      "tx_subtype": "outgoing",
      "value_zatoshi": "25000000",
      "fee_zatoshi": "2000",
      "usd_value_at_time": null,
      "counterparty_address": "t1DEXAddress001",
      "counterparty_type": "defi",
      "feature_used": "token_swap",
      "sequence_position": null,
      "session_id": null,
      "time_since_previous_tx_minutes": null,
      "is_shielded": false,
      "shielded_pool_entry": false,
      "shielded_pool_exit": false,
      "processed_at": "2025-11-25T16:24:44.425Z"
    }
  ],
  "sample_projects": [
    {
      "id": "463e6c3e-f58e-4d94-a9f6-8fee3768edb2",
      "user_id": "b02a73f8-5574-4e19-9480-ac8a0adc9c73",
      "name": "Test Project",
      "description": "Test",
      "category": "other",
      "status": "draft",
      "website_url": null,
      "github_url": null,
      "logo_url": null,
      "tags": [],
      "created_at": "2025-11-25T13:22:12.943Z",
      "updated_at": "2025-11-25T13:22:12.943Z",
      "launched_at": null
    }
  ],
  "sample_scalable_monitored_contracts": [
    {
      "id": 1,
      "contract_address": "0x04bb1a742ac72a9a72beebe1f608c508fce6dfa9250b869018b6e157dccb46e8",
      "chain_id": "SN_MAIN",
      "chain_name": "Starknet Mainnet",
      "chain_type": "starknet",
      "rpc_url": "https://rpc.starknet.lava.build",
      "network_id": "0x534e5f4d41494e",
      "last_indexed_block": "0",
      "is_active": true,
      "added_at": "2025-12-13T01:40:50.304Z",
      "updated_at": "2025-12-13T01:40:50.304Z"
    },
    {
      "id": 2,
      "contract_address": "0xafa60a2e2691958c3e7956a6d68d2ecf746fea54",
      "chain_id": "8453",
      "chain_name": "Base",
      "chain_type": "evm",
      "rpc_url": "https://base-rpc.publicnode.com",
      "network_id": "8453",
      "last_indexed_block": "0",
      "is_active": true,
      "added_at": "2025-12-13T01:52:19.157Z",
      "updated_at": "2025-12-13T01:52:19.157Z"
    }
  ],
  "sample_scalable_transactions": [],
  "sample_shielded_invoices": [],
  "sample_shielded_pool_metrics": [
    {
      "id": "27228c00-a1af-4ad3-9008-bea391b0ac74",
      "wallet_id": "6d0fe47b-560e-460d-923f-e4d5076a4bc8",
      "analysis_date": "2016-10-27T23:00:00.000Z",
      "shielded_tx_count": 0,
      "transparent_to_shielded_count": 0,
      "shielded_to_transparent_count": 0,
      "internal_shielded_count": 0,
      "avg_shielded_duration_hours": "0.00",
      "shielded_volume_zatoshi": "0",
      "privacy_score": 0,
      "created_at": "2025-11-25T17:10:02.076Z"
    },
    {
      "id": "a8c19be3-9816-4b79-be4e-7d1feb938a84",
      "wallet_id": "578c220b-1587-45a4-b38f-a30beeb545d4",
      "analysis_date": "2016-10-27T23:00:00.000Z",
      "shielded_tx_count": 0,
      "transparent_to_shielded_count": 0,
      "shielded_to_transparent_count": 0,
      "internal_shielded_count": 0,
      "avg_shielded_duration_hours": "0.00",
      "shielded_volume_zatoshi": "0",
      "privacy_score": 0,
      "created_at": "2025-11-25T17:10:03.108Z"
    },
    {
      "id": "0b67a5d3-4a03-4bf8-92fb-263764302f24",
      "wallet_id": "2b3b8c7d-1d75-49d4-94dc-7b6001737347",
      "analysis_date": "2016-10-27T23:00:00.000Z",
      "shielded_tx_count": 0,
      "transparent_to_shielded_count": 0,
      "shielded_to_transparent_count": 0,
      "internal_shielded_count": 0,
      "avg_shielded_duration_hours": "0.00",
      "shielded_volume_zatoshi": "0",
      "privacy_score": 0,
      "created_at": "2025-11-25T17:10:03.367Z"
    }
  ],
  "sample_shielded_wallets": [],
  "sample_transactions": [
    {
      "txid": "8974d08d1c5f9c860d8b629d582a56659a4a1dcb2b5f98a25a5afcc2a784b0f4",
      "block_height": "2",
      "version": 1,
      "locktime": "0",
      "total_value": "0.00125",
      "fee": "-0.00125",
      "timestamp": "2016-10-28T16:20:26.000Z",
      "tx_type": null,
      "is_shielded": null,
      "raw": null
    },
    {
      "txid": "4e3670eae21d0c7225716abacb3a95c203a75d7601594afddb07d175c3babe83",
      "block_height": "3",
      "version": 1,
      "locktime": "0",
      "total_value": "0.001875",
      "fee": "-0.001875",
      "timestamp": "2016-10-28T16:20:29.000Z",
      "tx_type": null,
      "is_shielded": null,
      "raw": null
    },
    {
      "txid": "781bb9b0168831054c1ed3afd8bf153f3fc848e102cea86977545c86f6e2446e",
      "block_height": "4",
      "version": 1,
      "locktime": "0",
      "total_value": "0.0025",
      "fee": "-0.0025",
      "timestamp": "2016-10-28T16:20:32.000Z",
      "tx_type": null,
      "is_shielded": null,
      "raw": null
    }
  ],
  "sample_ultimate_address_balances": [],
  "sample_ultimate_contract_events": [],
  "sample_ultimate_contract_transactions": [],
  "sample_ultimate_events": [],
  "sample_ultimate_function_signatures": [],
  "sample_ultimate_transactions": [],
  "sample_unified_addresses": [],
  "sample_unified_invoices": [],
  "sample_user_payment_preferences": [],
  "sample_users": [
    {
      "id": "b02a73f8-5574-4e19-9480-ac8a0adc9c73",
      "email": "test@example.com",
      "name": "Test User",
      "created_at": "2025-11-25T13:10:28.965Z",
      "updated_at": "2025-12-04T18:50:19.661Z",
      "password_hash": "$2b$10$3SPaNjZiXwiff3Ma1au.XOlMVKkLrgMe50NpPsTJqaKgZR63TB.j2",
      "subscription_status": "free",
      "subscription_expires_at": "2026-01-03T18:50:19.661Z",
      "onboarding_completed": false,
      "balance_zec": "0.00000000"
    },
    {
      "id": "a5abc94d-b289-4aeb-acd8-c0e64b28e6b8",
      "email": "test-1764076245145@example.com",
      "name": "Test User",
      "created_at": "2025-11-25T13:10:45.341Z",
      "updated_at": "2025-12-04T18:50:19.661Z",
      "password_hash": "$2b$10$30yNNClPN95IR4ijXX3UV.1eY6uqQ5gWYwL18AIXrEmXaKPx3no3K",
      "subscription_status": "free",
      "subscription_expires_at": "2026-01-03T18:50:19.661Z",
      "onboarding_completed": false,
      "balance_zec": "0.00000000"
    },
    {
      "id": "c44682d5-78c4-4411-86fa-1132feb65b96",
      "email": "test-1764076339490@example.com",
      "name": "Test User",
      "created_at": "2025-11-25T13:12:19.852Z",
      "updated_at": "2025-12-04T18:50:19.661Z",
      "password_hash": "$2b$10$OPEyYSghlsnz5Qrqi0CMdOzfldhk0bQsUnitycHVqDJsVPhZz734e",
      "subscription_status": "free",
      "subscription_expires_at": "2026-01-03T18:50:19.661Z",
      "onboarding_completed": false,
      "balance_zec": "0.00000000"
    }
  ],
  "sample_wallet_activity_metrics": [
    {
      "id": "4a741a00-5a29-41d1-bed5-a5c2abd636b5",
      "wallet_id": "d158c8cb-be4f-42dc-b5d3-ee87e505ff67",
      "activity_date": "2025-11-24T23:00:00.000Z",
      "transaction_count": 3,
      "unique_days_active": 0,
      "total_volume_zatoshi": "85000000",
      "total_fees_paid": "100020005000",
      "transfers_count": 1,
      "swaps_count": 1,
      "bridges_count": 0,
      "shielded_count": 1,
      "is_active": true,
      "is_returning": true,
      "days_since_creation": 0,
      "sequence_complexity_score": 68,
      "created_at": "2025-11-25T15:33:14.128Z",
      "updated_at": "2025-11-25T15:58:08.111Z"
    },
    {
      "id": "b98355e1-f97c-4e99-931a-61e52509579c",
      "wallet_id": "d158c8cb-be4f-42dc-b5d3-ee87e505ff67",
      "activity_date": "2025-11-23T23:00:00.000Z",
      "transaction_count": 3,
      "unique_days_active": 0,
      "total_volume_zatoshi": "50000000",
      "total_fees_paid": "500",
      "transfers_count": 2,
      "swaps_count": 0,
      "bridges_count": 0,
      "shielded_count": 0,
      "is_active": true,
      "is_returning": false,
      "days_since_creation": -2,
      "sequence_complexity_score": 25,
      "created_at": "2025-11-25T15:33:15.032Z",
      "updated_at": "2025-11-25T16:09:46.302Z"
    },
    {
      "id": "bc2512eb-71ed-401d-b17e-582f9bbb11ca",
      "wallet_id": "d158c8cb-be4f-42dc-b5d3-ee87e505ff67",
      "activity_date": "2025-11-30T23:00:00.000Z",
      "transaction_count": 1,
      "unique_days_active": 0,
      "total_volume_zatoshi": "0",
      "total_fees_paid": "0",
      "transfers_count": 0,
      "swaps_count": 0,
      "bridges_count": 0,
      "shielded_count": 0,
      "is_active": true,
      "is_returning": true,
      "days_since_creation": 0,
      "sequence_complexity_score": 0,
      "created_at": "2025-11-25T16:09:46.393Z",
      "updated_at": "2025-11-25T16:09:46.393Z"
    }
  ],
  "sample_wallet_adoption_stages": [
    {
      "id": "a0ee2832-cb2d-4beb-b5ad-9336c6507da5",
      "wallet_id": "d158c8cb-be4f-42dc-b5d3-ee87e505ff67",
      "stage_name": "created",
      "achieved_at": "2025-11-25T13:22:13.106Z",
      "time_to_achieve_hours": 0,
      "conversion_probability": "1.0000",
      "created_at": "2025-11-25T16:21:07.397Z"
    },
    {
      "id": "263368a3-de57-43e4-a886-f09c906aada3",
      "wallet_id": "d158c8cb-be4f-42dc-b5d3-ee87e505ff67",
      "stage_name": "recurring",
      "achieved_at": null,
      "time_to_achieve_hours": null,
      "conversion_probability": null,
      "created_at": "2025-11-25T16:21:08.638Z"
    },
    {
      "id": "e2ae1946-5251-4a10-8d8e-bebb33d60eff",
      "wallet_id": "d158c8cb-be4f-42dc-b5d3-ee87e505ff67",
      "stage_name": "high_value",
      "achieved_at": null,
      "time_to_achieve_hours": null,
      "conversion_probability": null,
      "created_at": "2025-11-25T16:21:08.641Z"
    }
  ],
  "sample_wallet_behavior_flows": [
    {
      "id": "64dcb142-3d50-4b08-9c4d-173c997e5eb3",
      "wallet_id": "0726fa11-1fe0-4ea9-9029-8148274c2209",
      "session_id": "48cf6825-772b-4c6b-8bec-2653def9e1e6",
      "flow_sequence": {
        "flows": [
          {
            "flow_id": "flow_1",
            "end_time": "2016-10-31T06:55:32.000Z",
            "flow_type": "internal_shielded",
            "complexity": "advanced",
            "start_time": "2016-10-30T11:34:33.000Z",
            "transactions": [
              {
                "txid": "cee9a735556879b9ee0f81e1d5f0c5140d255f881614bb202ba2a2fcc7c1abda",
                "tx_type": "shielded",
                "timestamp": "2016-10-30T11:34:33.000Z",
                "is_shielded": true,
                "shielded_exit": false,
                "value_zatoshi": "2875172",
                "shielded_entry": false
              },
              {
                "txid": "8b4775bb0039f208570c2fbf721e78208733b739cf06edf2f7bad9a0e0f92d6f",
                "tx_type": "shielded",
                "timestamp": "2016-10-30T12:31:53.000Z",
                "is_shielded": true,
                "shielded_exit": false,
                "value_zatoshi": "1267986",
                "shielded_entry": false
              },
              {
                "txid": "1e0cf8afa3f4ea5429ceafadec6c10eb307fefb4f6dc3b28e2ce12f131ed2fec",
                "tx_type": "shielded",
                "timestamp": "2016-10-30T12:41:53.000Z",
                "is_shielded": true,
                "shielded_exit": false,
                "value_zatoshi": "1320051",
                "shielded_entry": false
              },
              {
                "txid": "50056245f6850e9ed744384ba7ce386e3c810d7197aaf73dc0edc738f1d917f9",
                "tx_type": "shielded",
                "timestamp": "2016-10-30T13:18:55.000Z",
                "is_shielded": true,
                "shielded_exit": false,
                "value_zatoshi": "1341540",
                "shielded_entry": false
              },
              {
                "txid": "bc8162a2dafc5e7874fdb4fa7d656505cb3ba867fe994d8da0095bd46cf5dcc5",
                "tx_type": "shielded",
                "timestamp": "2016-10-30T14:00:49.000Z",
                "is_shielded": true,
                "shielded_exit": false,
                "value_zatoshi": "2508925",
                "shielded_entry": false
              },
              {
                "txid": "8c08fe9e36db9fa1218b7fa341e9d5e014ac9a2f3bba70b0e9c1808984f1fb6e",
                "tx_type": "shielded",
                "timestamp": "2016-10-30T14:45:08.000Z",
                "is_shielded": true,
                "shielded_exit": false,
                "value_zatoshi": "1132896",
                "shielded_entry": false
              },
              {
                "txid": "33ab10425b81e98f050e059cdeefd75e65ee4d40e2143e20a41cf5542185296f",
                "tx_type": "shielded",
                "timestamp": "2016-10-30T15:37:17.000Z",
                "is_shielded": true,
                "shielded_exit": false,
                "value_zatoshi": "1104405",
                "shielded_entry": false
              },
              {
                "txid": "f81ac0d506dae3499e2bc1589d012ce85155e3d117d0940cae689be694a87a2a",
                "tx_type": "shielded",
                "timestamp": "2016-10-30T15:59:02.000Z",
                "is_shielded": true,
                "shielded_exit": false,
                "value_zatoshi": "4428639",
                "shielded_entry": false
              },
              {
                "txid": "55cf7c003f7875679441bf7a6b5129df410ad1d62cc5622c5b66160f5a06e7ff",
                "tx_type": "shielded",
                "timestamp": "2016-10-30T17:13:02.000Z",
                "is_shielded": true,
                "shielded_exit": false,
                "value_zatoshi": "1042718",
                "shielded_entry": false
              },
              {
                "txid": "714375f1b6d60b0c4f68e7649025fc89cde3804b8170b9a58b33879f825ac0f4",
                "tx_type": "shielded",
                "timestamp": "2016-10-30T17:52:27.000Z",
                "is_shielded": true,
                "shielded_exit": false,
                "value_zatoshi": "1043720",
                "shielded_entry": false
              },
              {
                "txid": "c515d27595419f26605a576aa5b90c0364c069772aada8e758afe5bf3cf54648",
                "tx_type": "shielded",
                "timestamp": "2016-10-30T18:13:40.000Z",
                "is_shielded": true,
                "shielded_exit": false,
                "value_zatoshi": "1042122",
                "shielded_entry": false
              },
              {
                "txid": "90c14e3b07fe2cbf850a42f29f58faa3c53bd315284d0d8c07f8ba7a5b07860b",
                "tx_type": "shielded",
                "timestamp": "2016-10-30T18:37:33.000Z",
                "is_shielded": true,
                "shielded_exit": false,
                "value_zatoshi": "1026741",
                "shielded_entry": false
              },
              {
                "txid": "e45a62b7b224e3340122270e19d22d6210b085e8a7def8b7e4aef9add6cc0e12",
                "tx_type": "shielded",
                "timestamp": "2016-10-30T18:55:37.000Z",
                "is_shielded": true,
                "shielded_exit": false,
                "value_zatoshi": "1005295",
                "shielded_entry": false
              },
              {
                "txid": "5085bb8d38e2913c11c3b3818be92ec98af1c01b3caf6ab28a4af041b5c329af",
                "tx_type": "shielded",
                "timestamp": "2016-10-30T19:15:20.000Z",
                "is_shielded": true,
                "shielded_exit": false,
                "value_zatoshi": "1986837",
                "shielded_entry": false
              },
              {
                "txid": "be634520856d44d4f8a515ecd9717e43b77360b31a52b0902d43d004e8cc4882",
                "tx_type": "shielded",
                "timestamp": "2016-10-30T19:45:42.000Z",
                "is_shielded": true,
                "shielded_exit": false,
                "value_zatoshi": "1017014",
                "shielded_entry": false
              },
              {
                "txid": "a32ae6304f32e1d07a8d2455e9ba91892fb8bb0a4e53df965e581ec6076926d8",
                "tx_type": "shielded",
                "timestamp": "2016-10-30T20:07:04.000Z",
                "is_shielded": true,
                "shielded_exit": false,
                "value_zatoshi": "1049502",
                "shielded_entry": false
              },
              {
                "txid": "0c6773abf2e75940ab944f0c119216a77cc764aba21e506e4ddb50bdfada56ca",
                "tx_type": "shielded",
                "timestamp": "2016-10-30T20:19:57.000Z",
                "is_shielded": true,
                "shielded_exit": false,
                "value_zatoshi": "2122524",
                "shielded_entry": false
              },
              {
                "txid": "0e57f092e126fdeab2fd769668d2ab795d40205d4e66d60dc161b575ec81a4f1",
                "tx_type": "shielded",
                "timestamp": "2016-10-30T20:49:33.000Z",
                "is_shielded": true,
                "shielded_exit": false,
                "value_zatoshi": "1068817",
                "shielded_entry": false
              },
              {
                "txid": "d4e909476d45098192dfcf2593de84f5964923250409627de32afeb75b77ffde",
                "tx_type": "shielded",
                "timestamp": "2016-10-30T21:52:06.000Z",
                "is_shielded": true,
                "shielded_exit": false,
                "value_zatoshi": "1095080",
                "shielded_entry": false
              },
              {
                "txid": "d842e996cc44a09523287bff227f0c7e2253d006ed46bda2b89b9cd05370c8fa",
                "tx_type": "shielded",
                "timestamp": "2016-10-30T22:04:59.000Z",
                "is_shielded": true,
                "shielded_exit": false,
                "value_zatoshi": "2202479",
                "shielded_entry": false
              },
              {
                "txid": "21f144c7a5bb601cce43262218110b4a85e6d613eff18569939fd7218a0ef073",
                "tx_type": "shielded",
                "timestamp": "2016-10-30T23:07:06.000Z",
                "is_shielded": true,
                "shielded_exit": false,
                "value_zatoshi": "1094609",
                "shielded_entry": false
              },
              {
                "txid": "587b1f49ddc0b4e303b4d0345079fda38248ebcb1a026cbe7f4e434b3595e2a9",
                "tx_type": "shielded",
                "timestamp": "2016-10-30T23:17:52.000Z",
                "is_shielded": true,
                "shielded_exit": false,
                "value_zatoshi": "1106160",
                "shielded_entry": false
              },
              {
                "txid": "c5a5ac5fd0f78627893ce239e322b78db3cac9167049bc43c4c5cb0ba7f871a0",
                "tx_type": "shielded",
                "timestamp": "2016-10-30T23:39:11.000Z",
                "is_shielded": true,
                "shielded_exit": false,
                "value_zatoshi": "1112609",
                "shielded_entry": false
              },
              {
                "txid": "d6ac99991908d42377e32c5935d5e3c177ed95fc8c8dc9ceb3786ee4b7e18b7a",
                "tx_type": "shielded",
                "timestamp": "2016-10-30T23:48:45.000Z",
                "is_shielded": true,
                "shielded_exit": false,
                "value_zatoshi": "2234383",
                "shielded_entry": false
              },
              {
                "txid": "401ae168d955e54e50daff7fea81b2f3330ebbb85b7de545f3fb02894f1915e7",
                "tx_type": "shielded",
                "timestamp": "2016-10-31T00:10:06.000Z",
                "is_shielded": true,
                "shielded_exit": false,
                "value_zatoshi": "1119228",
                "shielded_entry": false
              },
              {
                "txid": "89ca6818e58d2ac4dc9d71bc39f23a5aa73f40eed19706f0333bb41639fc48ac",
                "tx_type": "shielded",
                "timestamp": "2016-10-31T00:23:06.000Z",
                "is_shielded": true,
                "shielded_exit": false,
                "value_zatoshi": "1113518",
                "shielded_entry": false
              },
              {
                "txid": "d0b2e87189296c51c2e342a6bfe439b0cab898d1c27eec9bff084f75028c911e",
                "tx_type": "shielded",
                "timestamp": "2016-10-31T00:51:59.000Z",
                "is_shielded": true,
                "shielded_exit": false,
                "value_zatoshi": "1120866",
                "shielded_entry": false
              },
              {
                "txid": "12bb4aba71e88eacd8757f4b36ef5c197f03b801902e4a414797a537aedee037",
                "tx_type": "shielded",
                "timestamp": "2016-10-31T01:37:23.000Z",
                "is_shielded": true,
                "shielded_exit": false,
                "value_zatoshi": "1103652",
                "shielded_entry": false
              },
              {
                "txid": "c77b3f8dd29f731caa5e3eb5faa553efbde97f844af9bf0cae686ca426feb19f",
                "tx_type": "shielded",
                "timestamp": "2016-10-31T01:44:12.000Z",
                "is_shielded": true,
                "shielded_exit": false,
                "value_zatoshi": "1100406",
                "shielded_entry": false
              },
              {
                "txid": "3c4068832f1c4e368d6ba5022a7437679a6c046f815428da1e93d280e2d5e2ff",
                "tx_type": "shielded",
                "timestamp": "2016-10-31T01:56:16.000Z",
                "is_shielded": true,
                "shielded_exit": false,
                "value_zatoshi": "2220623",
                "shielded_entry": false
              },
              {
                "txid": "b2a80f97e9af3f856313019adb28df06878e5a10ce66c83428af78a58cca3864",
                "tx_type": "shielded",
                "timestamp": "2016-10-31T02:15:42.000Z",
                "is_shielded": true,
                "shielded_exit": false,
                "value_zatoshi": "4467759",
                "shielded_entry": false
              },
              {
                "txid": "3f8f1beea6bb342ca92a5fd03754a732eba91528049f922d3a7738d9978ff657",
                "tx_type": "shielded",
                "timestamp": "2016-10-31T02:28:45.000Z",
                "is_shielded": true,
                "shielded_exit": false,
                "value_zatoshi": "1135121",
                "shielded_entry": false
              },
              {
                "txid": "49b2c1edc27593c41ac9d6c305c4dbcce1d88cd44ab98449d1dde24284df6e7b",
                "tx_type": "shielded",
                "timestamp": "2016-10-31T02:37:47.000Z",
                "is_shielded": true,
                "shielded_exit": false,
                "value_zatoshi": "1141679",
                "shielded_entry": false
              },
              {
                "txid": "250db8c57a11965417fbbf2f9962efe7d44d62ed1ea5a3873e6bc0ffdad271b0",
                "tx_type": "shielded",
                "timestamp": "2016-10-31T02:47:30.000Z",
                "is_shielded": true,
                "shielded_exit": false,
                "value_zatoshi": "3424631",
                "shielded_entry": false
              },
              {
                "txid": "57f03069d22d71de67b9d0a97e9dece3723eca418a166274f968b57adc235829",
                "tx_type": "shielded",
                "timestamp": "2016-10-31T02:58:25.000Z",
                "is_shielded": true,
                "shielded_exit": false,
                "value_zatoshi": "1143692",
                "shielded_entry": false
              },
              {
                "txid": "2adfa8e8af8823d33bdc048e85993ed1696c4b5db926c5e36138784387f9f905",
                "tx_type": "shielded",
                "timestamp": "2016-10-31T03:26:58.000Z",
                "is_shielded": true,
                "shielded_exit": false,
                "value_zatoshi": "1148998",
                "shielded_entry": false
              },
              {
                "txid": "2566eb7baa567cc15b8f5e7a5322fc452b51c1f2776f41a8ee5647397e45296a",
                "tx_type": "shielded",
                "timestamp": "2016-10-31T03:50:29.000Z",
                "is_shielded": true,
                "shielded_exit": false,
                "value_zatoshi": "1155037",
                "shielded_entry": false
              },
              {
                "txid": "3c21b80711ae198756a6e9d56a15ae241844f05beea3b8d734e03282e1407c13",
                "tx_type": "shielded",
                "timestamp": "2016-10-31T04:01:31.000Z",
                "is_shielded": true,
                "shielded_exit": false,
                "value_zatoshi": "2309345",
                "shielded_entry": false
              },
              {
                "txid": "ce5c19f1e0dbde8f5958f42c973b117ea280e9e7be0b82f96dd44b30e78e569f",
                "tx_type": "shielded",
                "timestamp": "2016-10-31T04:13:40.000Z",
                "is_shielded": true,
                "shielded_exit": false,
                "value_zatoshi": "1156415",
                "shielded_entry": false
              },
              {
                "txid": "4eddb2d0fb85d0b9e6d862100846bc0b34ec6c9a9bee329529946e79f90f876e",
                "tx_type": "shielded",
                "timestamp": "2016-10-31T04:25:49.000Z",
                "is_shielded": true,
                "shielded_exit": false,
                "value_zatoshi": "2315034",
                "shielded_entry": false
              },
              {
                "txid": "1f752429fd0592739af7ccf6ab0613ea0f4a85b83b7940827d56f9c443d6d226",
                "tx_type": "shielded",
                "timestamp": "2016-10-31T04:44:45.000Z",
                "is_shielded": true,
                "shielded_exit": false,
                "value_zatoshi": "1163482",
                "shielded_entry": false
              },
              {
                "txid": "61f7e741bf518b5ceb4c92f9b94c26d872f8fc4650decf2119a7a9ba1f82eea3",
                "tx_type": "shielded",
                "timestamp": "2016-10-31T05:07:13.000Z",
                "is_shielded": true,
                "shielded_exit": false,
                "value_zatoshi": "1180561",
                "shielded_entry": false
              },
              {
                "txid": "4d6659f44abe173545e1042131acbff57f90bb2711ad08546b275fdbada50ca7",
                "tx_type": "shielded",
                "timestamp": "2016-10-31T05:19:43.000Z",
                "is_shielded": true,
                "shielded_exit": false,
                "value_zatoshi": "2377335",
                "shielded_entry": false
              },
              {
                "txid": "50174592f879287d068340f045a30acf62aa0741559b60112119fb7586349d45",
                "tx_type": "shielded",
                "timestamp": "2016-10-31T05:30:52.000Z",
                "is_shielded": true,
                "shielded_exit": false,
                "value_zatoshi": "1196663",
                "shielded_entry": false
              },
              {
                "txid": "d712360333f13a26dab02205be183ec200690165c88bb441d0a4a54c0bf90f53",
                "tx_type": "shielded",
                "timestamp": "2016-10-31T05:35:29.000Z",
                "is_shielded": true,
                "shielded_exit": false,
                "value_zatoshi": "1196485",
                "shielded_entry": false
              },
              {
                "txid": "12969b2c95762662590971617c7a560e768ddc99d578b255d3a37fe253fecb69",
                "tx_type": "shielded",
                "timestamp": "2016-10-31T06:29:07.000Z",
                "is_shielded": true,
                "shielded_exit": false,
                "value_zatoshi": "2348605",
                "shielded_entry": false
              },
              {
                "txid": "39d77ba3371a43580c13ae5ebae86b60666639c15734572fbd5deb9de2c6890b",
                "tx_type": "shielded",
                "timestamp": "2016-10-31T06:40:54.000Z",
                "is_shielded": true,
                "shielded_exit": false,
                "value_zatoshi": "1160748",
                "shielded_entry": false
              },
              {
                "txid": "b569c929e5c9307157b7bea6b60d1f2aef01ded86e69eff8322b002f931e18d6",
                "tx_type": "shielded",
                "timestamp": "2016-10-31T06:55:32.000Z",
                "is_shielded": true,
                "shielded_exit": false,
                "value_zatoshi": "1138226",
                "shielded_entry": false
              }
            ],
            "duration_minutes": 1161,
            "privacy_transitions": [
              "shielded_to_shielded",
              "shielded_to_shielded",
              "shielded_to_shielded",
              "shielded_to_shielded",
              "shielded_to_shielded",
              "shielded_to_shielded",
              "shielded_to_shielded",
              "shielded_to_shielded",
              "shielded_to_shielded",
              "shielded_to_shielded",
              "shielded_to_shielded",
              "shielded_to_shielded",
              "shielded_to_shielded",
              "shielded_to_shielded",
              "shielded_to_shielded",
              "shielded_to_shielded",
              "shielded_to_shielded",
              "shielded_to_shielded",
              "shielded_to_shielded",
              "shielded_to_shielded",
              "shielded_to_shielded",
              "shielded_to_shielded",
              "shielded_to_shielded",
              "shielded_to_shielded",
              "shielded_to_shielded",
              "shielded_to_shielded",
              "shielded_to_shielded",
              "shielded_to_shielded",
              "shielded_to_shielded",
              "shielded_to_shielded",
              "shielded_to_shielded",
              "shielded_to_shielded",
              "shielded_to_shielded",
              "shielded_to_shielded",
              "shielded_to_shielded",
              "shielded_to_shielded",
              "shielded_to_shielded",
              "shielded_to_shielded",
              "shielded_to_shielded",
              "shielded_to_shielded",
              "shielded_to_shielded",
              "shielded_to_shielded",
              "shielded_to_shielded",
              "shielded_to_shielded",
              "shielded_to_shielded",
              "shielded_to_shielded",
              "shielded_to_shielded"
            ]
          }
        ],
        "metrics": {
          "total_flows": 1,
          "shielded_flow_ratio": 100,
          "flow_type_distribution": {
            "internal_shielded": 1
          },
          "complexity_distribution": {
            "simple": 0,
            "complex": 0,
            "advanced": 1,
            "moderate": 0
          },
          "privacy_efficiency_score": 48,
          "avg_flow_duration_minutes": 1161,
          "avg_transactions_per_flow": 48
        },
        "wallet_id": "0726fa11-1fe0-4ea9-9029-8148274c2209",
        "analyzed_at": "2025-11-25T17:19:11.350Z",
        "transitions": {
          "counts": {
            "shielded_to_shielded": 47,
            "shielded_to_transparent": 0,
            "transparent_to_shielded": 1,
            "transparent_to_transparent": 1
          },
          "percentages": {
            "shielded_to_shielded": 95.92,
            "shielded_to_transparent": 0,
            "transparent_to_shielded": 2.04,
            "transparent_to_transparent": 2.04
          },
          "total_transitions": 49
        },
        "analysis_period": {
          "end_date": "2016-11-30",
          "start_date": "2016-10-01"
        },
        "behavior_pattern": {
          "confidence": 90,
          "characteristics": [
            "Primarily uses shielded transactions",
            "Complex transaction flows"
          ],
          "primary_pattern": "shielded_native",
          "privacy_preference": "high"
        },
        "loyalty_prediction": {
          "risk_factors": [
            "Limited privacy exploration"
          ],
          "loyalty_score": 80,
          "engagement_level": "high",
          "positive_indicators": [
            "Native shielded user - high privacy commitment",
            "Sophisticated privacy usage"
          ],
          "retention_probability": 94
        }
      },
      "flow_duration_minutes": 1161,
      "flow_complexity_score": 48,
      "flow_type": "shielded_native",
      "success_indicator": true,
      "started_at": "2016-09-30T23:00:00.000Z",
      "completed_at": "2016-11-29T23:00:00.000Z",
      "created_at": "2025-11-25T17:19:11.352Z"
    },
    {
      "id": "7d3b84a1-2c80-44ac-b591-12a3dec3b4f5",
      "wallet_id": "d158c8cb-be4f-42dc-b5d3-ee87e505ff67",
      "session_id": "76197243-f388-480e-9020-0acf1785b53a",
      "flow_sequence": {
        "flows": [
          {
            "flow_id": "flow_1",
            "end_time": "2025-11-25T16:28:07.666Z",
            "flow_type": "single_transaction",
            "complexity": "simple",
            "start_time": "2025-11-25T16:28:07.666Z",
            "transactions": [
              {
                "txid": "test_tx_003",
                "tx_type": "shielded",
                "timestamp": "2025-11-25T16:28:07.666Z",
                "is_shielded": true,
                "shielded_exit": false,
                "value_zatoshi": "-10000000",
                "shielded_entry": false
              }
            ],
            "duration_minutes": 0,
            "privacy_transitions": []
          }
        ],
        "metrics": {
          "total_flows": 1,
          "shielded_flow_ratio": 100,
          "flow_type_distribution": {
            "single_transaction": 1
          },
          "complexity_distribution": {
            "simple": 1,
            "complex": 0,
            "advanced": 0,
            "moderate": 0
          },
          "privacy_efficiency_score": 23,
          "avg_flow_duration_minutes": 0,
          "avg_transactions_per_flow": 1
        },
        "wallet_id": "d158c8cb-be4f-42dc-b5d3-ee87e505ff67",
        "analyzed_at": "2025-11-25T17:19:11.381Z",
        "transitions": {
          "counts": {
            "shielded_to_shielded": 0,
            "shielded_to_transparent": 0,
            "transparent_to_shielded": 1,
            "transparent_to_transparent": 1
          },
          "percentages": {
            "shielded_to_shielded": 0,
            "shielded_to_transparent": 0,
            "transparent_to_shielded": 50,
            "transparent_to_transparent": 50
          },
          "total_transitions": 2
        },
        "analysis_period": {
          "end_date": "2025-11-25T17:19:11.377Z",
          "start_date": "2025-09-26T17:19:11.377Z"
        },
        "behavior_pattern": {
          "confidence": 90,
          "characteristics": [
            "Primarily uses shielded transactions",
            "Quick privacy operations"
          ],
          "primary_pattern": "shielded_native",
          "privacy_preference": "high"
        },
        "loyalty_prediction": {
          "risk_factors": [
            "Limited privacy exploration"
          ],
          "loyalty_score": 75,
          "engagement_level": "high",
          "positive_indicators": [
            "Native shielded user - high privacy commitment"
          ],
          "retention_probability": 90
        }
      },
      "flow_duration_minutes": 0,
      "flow_complexity_score": 23,
      "flow_type": "shielded_native",
      "success_indicator": true,
      "started_at": "2025-09-26T17:19:11.377Z",
      "completed_at": "2025-11-25T17:19:11.377Z",
      "created_at": "2025-11-25T17:19:11.383Z"
    }
  ],
  "sample_wallet_cohort_assignments": [
    {
      "id": "d80aac07-09c8-4eb2-a05a-352f23056a28",
      "wallet_id": "d158c8cb-be4f-42dc-b5d3-ee87e505ff67",
      "cohort_id": "4365b41c-18cd-45c4-afb0-b3e35af1f296",
      "created_at": "2025-11-25T16:07:10.131Z"
    },
    {
      "id": "002cb144-dd53-419b-b528-5624214d81ba",
      "wallet_id": "d158c8cb-be4f-42dc-b5d3-ee87e505ff67",
      "cohort_id": "0db96034-b7a6-4c74-8668-b2ddf3b4b706",
      "created_at": "2025-11-25T16:07:10.169Z"
    }
  ],
  "sample_wallet_cohorts": [
    {
      "id": "5cbed344-8671-476a-b7a9-4d7fca6acfef",
      "cohort_type": "weekly",
      "cohort_period": "2025-10-25T23:00:00.000Z",
      "wallet_count": 0,
      "retention_week_1": null,
      "retention_week_2": null,
      "retention_week_3": null,
      "retention_week_4": null,
      "created_at": "2025-11-25T16:07:10.241Z",
      "updated_at": "2025-11-25T16:07:10.244Z"
    },
    {
      "id": "9a8295cc-121a-4d75-9192-2379996e1ca1",
      "cohort_type": "weekly",
      "cohort_period": "2025-11-01T23:00:00.000Z",
      "wallet_count": 0,
      "retention_week_1": null,
      "retention_week_2": null,
      "retention_week_3": null,
      "retention_week_4": null,
      "created_at": "2025-11-25T16:07:10.246Z",
      "updated_at": "2025-11-25T16:07:10.249Z"
    },
    {
      "id": "4770bfa3-07a5-4318-8580-bb9af915db19",
      "cohort_type": "weekly",
      "cohort_period": "2025-11-08T23:00:00.000Z",
      "wallet_count": 0,
      "retention_week_1": null,
      "retention_week_2": null,
      "retention_week_3": null,
      "retention_week_4": null,
      "created_at": "2025-11-25T16:07:10.250Z",
      "updated_at": "2025-11-25T16:07:10.253Z"
    }
  ],
  "sample_wallet_health_dashboard": [
    {
      "health_status": "Churn",
      "wallet_count": "3",
      "avg_score": "28.00",
      "percentage": "100.00"
    }
  ],
  "sample_wallet_privacy_settings": [
    {
      "id": "a75c491c-09f1-48a0-8e27-5fbb9bb10aa0",
      "wallet_id": "d158c8cb-be4f-42dc-b5d3-ee87e505ff67",
      "data_sharing_level": "private",
      "anonymization_level": "high",
      "monetization_enabled": false,
      "earnings_address": null,
      "revenue_share_percentage": "50.00",
      "allowed_analytics_types": [
        "basic"
      ],
      "data_retention_days": 365,
      "updated_at": "2025-11-25T15:33:14.128Z"
    }
  ],
  "sample_wallet_productivity_scores": [
    {
      "id": "1f705e4d-bb01-469d-813c-d35cd8b9e8eb",
      "wallet_id": "d158c8cb-be4f-42dc-b5d3-ee87e505ff67",
      "total_score": 47,
      "retention_score": 65,
      "adoption_score": 0,
      "activity_score": 50,
      "diversity_score": 75,
      "status": "at_risk",
      "risk_level": "medium",
      "pending_tasks": [],
      "completed_tasks": [],
      "calculated_at": "2025-11-25T15:35:32.183Z"
    },
    {
      "id": "1d10d52c-0817-4e77-95d4-7b2c8225d015",
      "wallet_id": "2297972b-ce4c-4b6a-98b8-49b85bb5ec85",
      "total_score": 18,
      "retention_score": 0,
      "adoption_score": 30,
      "activity_score": 0,
      "diversity_score": 15,
      "status": "churn",
      "risk_level": "high",
      "pending_tasks": [],
      "completed_tasks": [],
      "calculated_at": "2025-11-25T16:46:22.449Z"
    },
    {
      "id": "e80f9686-41e2-4ed2-8c22-582614a122d8",
      "wallet_id": "2b3b8c7d-1d75-49d4-94dc-7b6001737347",
      "total_score": 19,
      "retention_score": 0,
      "adoption_score": 35,
      "activity_score": 0,
      "diversity_score": 15,
      "status": "churn",
      "risk_level": "high",
      "pending_tasks": [],
      "completed_tasks": [],
      "calculated_at": "2025-11-25T16:46:22.677Z"
    }
  ],
  "sample_wallets": [
    {
      "id": "d158c8cb-be4f-42dc-b5d3-ee87e505ff67",
      "project_id": "463e6c3e-f58e-4d94-a9f6-8fee3768edb2",
      "address": "t1TestAddress123",
      "type": "t",
      "privacy_mode": "public",
      "description": "Test wallet",
      "network": "mainnet",
      "is_active": true,
      "created_at": "2025-11-25T13:22:13.106Z",
      "updated_at": "2025-11-25T13:22:13.106Z"
    },
    {
      "id": "6d0fe47b-560e-460d-923f-e4d5076a4bc8",
      "project_id": "463e6c3e-f58e-4d94-a9f6-8fee3768edb2",
      "address": "t3Vz22vK5z2LcKEdg16Yv4FFneEL1zg9ojd",
      "type": "t",
      "privacy_mode": "private",
      "description": "Active address with 3509 transactions",
      "network": "mainnet",
      "is_active": true,
      "created_at": "2016-10-28T16:20:26.000Z",
      "updated_at": "2025-11-25T16:39:16.407Z"
    },
    {
      "id": "578c220b-1587-45a4-b38f-a30beeb545d4",
      "project_id": "463e6c3e-f58e-4d94-a9f6-8fee3768edb2",
      "address": "t1SaATQbzURpG1qU3vz9Wfn3pwXoTqFtTq2",
      "type": "t",
      "privacy_mode": "private",
      "description": "Active address with 1063 transactions",
      "network": "mainnet",
      "is_active": true,
      "created_at": "2016-10-28T16:35:13.000Z",
      "updated_at": "2025-11-25T16:39:16.427Z"
    }
  ],
  "sample_webzjs_invoices": [],
  "sample_webzjs_wallets": [],
  "sample_withdrawals": []
}
